{
  "_format": "hh-sol-artifact-1",
  "contractName": "HolacracyCore",
  "sourceName": "contracts/HolacracyCore.sol",
  "abi": [
    {
      "inputs": [],
      "stateMutability": "nonpayable",
      "type": "constructor"
    },
    {
      "anonymous": false,
      "inputs": [
        {
          "indexed": true,
          "internalType": "uint256",
          "name": "circleId",
          "type": "uint256"
        },
        {
          "indexed": false,
          "internalType": "string",
          "name": "purpose",
          "type": "string"
        }
      ],
      "name": "CircleCreated",
      "type": "event"
    },
    {
      "anonymous": false,
      "inputs": [
        {
          "indexed": true,
          "internalType": "uint256",
          "name": "roleId",
          "type": "uint256"
        },
        {
          "indexed": true,
          "internalType": "address",
          "name": "person",
          "type": "address"
        }
      ],
      "name": "RoleAssigned",
      "type": "event"
    },
    {
      "anonymous": false,
      "inputs": [
        {
          "indexed": true,
          "internalType": "uint256",
          "name": "roleId",
          "type": "uint256"
        },
        {
          "indexed": true,
          "internalType": "uint256",
          "name": "circleId",
          "type": "uint256"
        },
        {
          "indexed": false,
          "internalType": "string",
          "name": "purpose",
          "type": "string"
        }
      ],
      "name": "RoleCreated",
      "type": "event"
    },
    {
      "anonymous": false,
      "inputs": [
        {
          "indexed": true,
          "internalType": "uint256",
          "name": "roleId",
          "type": "uint256"
        }
      ],
      "name": "RoleUnassigned",
      "type": "event"
    },
    {
      "inputs": [
        {
          "internalType": "uint256",
          "name": "_roleId",
          "type": "uint256"
        },
        {
          "internalType": "address",
          "name": "_person",
          "type": "address"
        }
      ],
      "name": "assignRole",
      "outputs": [],
      "stateMutability": "nonpayable",
      "type": "function"
    },
    {
      "inputs": [
        {
          "internalType": "uint256",
          "name": "",
          "type": "uint256"
        }
      ],
      "name": "circles",
      "outputs": [
        {
          "internalType": "uint256",
          "name": "id",
          "type": "uint256"
        },
        {
          "internalType": "string",
          "name": "purpose",
          "type": "string"
        }
      ],
      "stateMutability": "view",
      "type": "function"
    },
    {
      "inputs": [
        {
          "internalType": "string",
          "name": "_purpose",
          "type": "string"
        }
      ],
      "name": "createCircle",
      "outputs": [],
      "stateMutability": "nonpayable",
      "type": "function"
    },
    {
      "inputs": [
        {
          "internalType": "uint256",
          "name": "_circleId",
          "type": "uint256"
        },
        {
          "internalType": "string",
          "name": "_purpose",
          "type": "string"
        }
      ],
      "name": "createRole",
      "outputs": [],
      "stateMutability": "nonpayable",
      "type": "function"
    },
    {
      "inputs": [
        {
          "internalType": "uint256",
          "name": "_circleId",
          "type": "uint256"
        }
      ],
      "name": "getCircleRoles",
      "outputs": [
        {
          "internalType": "uint256[]",
          "name": "",
          "type": "uint256[]"
        }
      ],
      "stateMutability": "view",
      "type": "function"
    },
    {
      "inputs": [],
      "name": "owner",
      "outputs": [
        {
          "internalType": "address",
          "name": "",
          "type": "address"
        }
      ],
      "stateMutability": "view",
      "type": "function"
    },
    {
      "inputs": [
        {
          "internalType": "uint256",
          "name": "",
          "type": "uint256"
        }
      ],
      "name": "roleFillers",
      "outputs": [
        {
          "internalType": "address",
          "name": "",
          "type": "address"
        }
      ],
      "stateMutability": "view",
      "type": "function"
    },
    {
      "inputs": [
        {
          "internalType": "uint256",
          "name": "",
          "type": "uint256"
        }
      ],
      "name": "roles",
      "outputs": [
        {
          "internalType": "uint256",
          "name": "id",
          "type": "uint256"
        },
        {
          "internalType": "string",
          "name": "purpose",
          "type": "string"
        },
        {
          "internalType": "uint256",
          "name": "circleId",
          "type": "uint256"
        }
      ],
      "stateMutability": "view",
      "type": "function"
    },
    {
      "inputs": [
        {
          "internalType": "uint256",
          "name": "_roleId",
          "type": "uint256"
        }
      ],
      "name": "unassignRole",
      "outputs": [],
      "stateMutability": "nonpayable",
      "type": "function"
    }
  ],
  "bytecode": "0x608060405234801561001057600080fd5b50336000806101000a81548173ffffffffffffffffffffffffffffffffffffffff021916908373ffffffffffffffffffffffffffffffffffffffff1602179055506100786040518060600160405280602a8152602001611df7602a913961007d60201b60201c565b61064c565b60006004600081548092919061009290610245565b91905055905060016040518060600160405280838152602001848152602001600067ffffffffffffffff8111156100cc576100cb61028d565b5b6040519080825280602002602001820160405280156100fa5781602001602082028036833780820191505090505b50815250908060018154018082558091505060019003906000526020600020906003020160009091909190915060008201518160000155602082015181600101908161014691906104d3565b5060408201518160020190805190602001906101639291906101a2565b505050807f0f1d414ce0fcb80ea849b3959ad21a0b80d52cac50e97a0556b7c753140baaac83604051610196919061062a565b60405180910390a25050565b8280548282559060005260206000209081019282156101de579160200282015b828111156101dd5782518255916020019190600101906101c2565b5b5090506101eb91906101ef565b5090565b5b808211156102085760008160009055506001016101f0565b5090565b7f4e487b7100000000000000000000000000000000000000000000000000000000600052601160045260246000fd5b6000819050919050565b60006102508261023b565b91507fffffffffffffffffffffffffffffffffffffffffffffffffffffffffffffffff82036102825761028161020c565b5b600182019050919050565b7f4e487b7100000000000000000000000000000000000000000000000000000000600052604160045260246000fd5b600081519050919050565b7f4e487b7100000000000000000000000000000000000000000000000000000000600052602260045260246000fd5b6000600282049050600182168061030e57607f821691505b602082108103610321576103206102c7565b5b50919050565b60008190508160005260206000209050919050565b60006020601f8301049050919050565b600082821b905092915050565b6000600883026103897fffffffffffffffffffffffffffffffffffffffffffffffffffffffffffffffff8261034c565b610393868361034c565b95508019841693508086168417925050509392505050565b6000819050919050565b60006103d06103cb6103c68461023b565b6103ab565b61023b565b9050919050565b6000819050919050565b6103ea836103b5565b6103fe6103f6826103d7565b848454610359565b825550505050565b600090565b610413610406565b61041e8184846103e1565b505050565b5b818110156104425761043760008261040b565b600181019050610424565b5050565b601f8211156104875761045881610327565b6104618461033c565b81016020851015610470578190505b61048461047c8561033c565b830182610423565b50505b505050565b600082821c905092915050565b60006104aa6000198460080261048c565b1980831691505092915050565b60006104c38383610499565b9150826002028217905092915050565b6104dc826102bc565b67ffffffffffffffff8111156104f5576104f461028d565b5b6104ff82546102f6565b61050a828285610446565b600060209050601f83116001811461053d576000841561052b578287015190505b61053585826104b7565b86555061059d565b601f19841661054b86610327565b60005b828110156105735784890151825560018201915060208501945060208101905061054e565b86831015610590578489015161058c601f891682610499565b8355505b6001600288020188555050505b505050505050565b600082825260208201905092915050565b60005b838110156105d45780820151818401526020810190506105b9565b60008484015250505050565b6000601f19601f8301169050919050565b60006105fc826102bc565b61060681856105a5565b93506106168185602086016105b6565b61061f816105e0565b840191505092915050565b6000602082019050818103600083015261064481846105f1565b905092915050565b61179c8061065b6000396000f3fe608060405234801561001057600080fd5b50600436106100935760003560e01c80638da5cb5b116100665780638da5cb5b1461011c578063bc5e0f301461013a578063bfda4a491461016b578063e548f0081461019d578063e88ca8a1146101cd57610093565b806334f9ad1b146100985780634378efc1146100b457806367b50c43146100d0578063685b824a14610100575b600080fd5b6100b260048036038101906100ad9190610c9c565b6101e9565b005b6100ce60048036038101906100c99190610e0f565b6103c6565b005b6100ea60048036038101906100e59190610c9c565b610460565b6040516100f79190610f16565b60405180910390f35b61011a60048036038101906101159190610f96565b610524565b005b610124610702565b6040516101319190610fe5565b60405180910390f35b610154600480360381019061014f9190610c9c565b610726565b60405161016292919061108e565b60405180910390f35b61018560048036038101906101809190610c9c565b6107e2565b604051610194939291906110be565b60405180910390f35b6101b760048036038101906101b29190610c9c565b6108a4565b6040516101c49190610fe5565b60405180910390f35b6101e760048036038101906101e291906110fc565b6108d7565b005b60008054906101000a900473ffffffffffffffffffffffffffffffffffffffff1673ffffffffffffffffffffffffffffffffffffffff163373ffffffffffffffffffffffffffffffffffffffff1614610277576040517f08c379a000000000000000000000000000000000000000000000000000000000815260040161026e906111ca565b60405180910390fd5b60028054905081106102be576040517f08c379a00000000000000000000000000000000000000000000000000000000081526004016102b590611236565b60405180910390fd5b600073ffffffffffffffffffffffffffffffffffffffff166003600083815260200190815260200160002060009054906101000a900473ffffffffffffffffffffffffffffffffffffffff1673ffffffffffffffffffffffffffffffffffffffff1603610360576040517f08c379a0000000000000000000000000000000000000000000000000000000008152600401610357906112a2565b60405180910390fd5b6003600082815260200190815260200160002060006101000a81549073ffffffffffffffffffffffffffffffffffffffff0219169055807fb7f65449ffd745be7ea3fcd5b15cdb2f54198613b08ea927d531416d9ff1f0b460405160405180910390a250565b60008054906101000a900473ffffffffffffffffffffffffffffffffffffffff1673ffffffffffffffffffffffffffffffffffffffff163373ffffffffffffffffffffffffffffffffffffffff1614610454576040517f08c379a000000000000000000000000000000000000000000000000000000000815260040161044b906111ca565b60405180910390fd5b61045d81610ac3565b50565b606060018054905082106104a9576040517f08c379a00000000000000000000000000000000000000000000000000000000081526004016104a09061130e565b60405180910390fd5b600182815481106104bd576104bc61132e565b5b906000526020600020906003020160020180548060200260200160405190810160405280929190818152602001828054801561051857602002820191906000526020600020905b815481526020019060010190808311610504575b50505050509050919050565b60008054906101000a900473ffffffffffffffffffffffffffffffffffffffff1673ffffffffffffffffffffffffffffffffffffffff163373ffffffffffffffffffffffffffffffffffffffff16146105b2576040517f08c379a00000000000000000000000000000000000000000000000000000000081526004016105a9906111ca565b60405180910390fd5b60028054905082106105f9576040517f08c379a00000000000000000000000000000000000000000000000000000000081526004016105f090611236565b60405180910390fd5b600073ffffffffffffffffffffffffffffffffffffffff168173ffffffffffffffffffffffffffffffffffffffff1603610668576040517f08c379a000000000000000000000000000000000000000000000000000000000815260040161065f906113cf565b60405180910390fd5b806003600084815260200190815260200160002060006101000a81548173ffffffffffffffffffffffffffffffffffffffff021916908373ffffffffffffffffffffffffffffffffffffffff1602179055508073ffffffffffffffffffffffffffffffffffffffff16827f23452a27f679c9445109cc9aff42c5ff27f2332a2e44570f6e1a6663df73f01a60405160405180910390a35050565b60008054906101000a900473ffffffffffffffffffffffffffffffffffffffff1681565b6001818154811061073657600080fd5b906000526020600020906003020160009150905080600001549080600101805461075f9061141e565b80601f016020809104026020016040519081016040528092919081815260200182805461078b9061141e565b80156107d85780601f106107ad576101008083540402835291602001916107d8565b820191906000526020600020905b8154815290600101906020018083116107bb57829003601f168201915b5050505050905082565b600281815481106107f257600080fd5b906000526020600020906003020160009150905080600001549080600101805461081b9061141e565b80601f01602080910402602001604051908101604052809291908181526020018280546108479061141e565b80156108945780601f1061086957610100808354040283529160200191610894565b820191906000526020600020905b81548152906001019060200180831161087757829003601f168201915b5050505050908060020154905083565b60036020528060005260406000206000915054906101000a900473ffffffffffffffffffffffffffffffffffffffff1681565b60008054906101000a900473ffffffffffffffffffffffffffffffffffffffff1673ffffffffffffffffffffffffffffffffffffffff163373ffffffffffffffffffffffffffffffffffffffff1614610965576040517f08c379a000000000000000000000000000000000000000000000000000000000815260040161095c906111ca565b60405180910390fd5b60018054905082106109ac576040517f08c379a00000000000000000000000000000000000000000000000000000000081526004016109a39061130e565b60405180910390fd5b6000600560008154809291906109c19061147e565b91905055905060026040518060600160405280838152602001848152602001858152509080600181540180825580915050600190039060005260206000209060030201600090919091909150600082015181600001556020820151816001019081610a2c9190611672565b5060408201518160020155505060018381548110610a4d57610a4c61132e565b5b906000526020600020906003020160020181908060018154018082558091505060019003906000526020600020016000909190919091505582817ff1116241b2f79992aba7f223088a6fcf7b5d9d0e2daa09dd76bb299e8c838fdf84604051610ab69190611744565b60405180910390a3505050565b600060046000815480929190610ad89061147e565b91905055905060016040518060600160405280838152602001848152602001600067ffffffffffffffff811115610b1257610b11610ce4565b5b604051908082528060200260200182016040528015610b405781602001602082028036833780820191505090505b508152509080600181540180825580915050600190039060005260206000209060030201600090919091909150600082015181600001556020820151816001019081610b8c9190611672565b506040820151816002019080519060200190610ba9929190610be8565b505050807f0f1d414ce0fcb80ea849b3959ad21a0b80d52cac50e97a0556b7c753140baaac83604051610bdc9190611744565b60405180910390a25050565b828054828255906000526020600020908101928215610c24579160200282015b82811115610c23578251825591602001919060010190610c08565b5b509050610c319190610c35565b5090565b5b80821115610c4e576000816000905550600101610c36565b5090565b6000604051905090565b600080fd5b600080fd5b6000819050919050565b610c7981610c66565b8114610c8457600080fd5b50565b600081359050610c9681610c70565b92915050565b600060208284031215610cb257610cb1610c5c565b5b6000610cc084828501610c87565b91505092915050565b600080fd5b600080fd5b6000601f19601f8301169050919050565b7f4e487b7100000000000000000000000000000000000000000000000000000000600052604160045260246000fd5b610d1c82610cd3565b810181811067ffffffffffffffff82111715610d3b57610d3a610ce4565b5b80604052505050565b6000610d4e610c52565b9050610d5a8282610d13565b919050565b600067ffffffffffffffff821115610d7a57610d79610ce4565b5b610d8382610cd3565b9050602081019050919050565b82818337600083830152505050565b6000610db2610dad84610d5f565b610d44565b905082815260208101848484011115610dce57610dcd610cce565b5b610dd9848285610d90565b509392505050565b600082601f830112610df657610df5610cc9565b5b8135610e06848260208601610d9f565b91505092915050565b600060208284031215610e2557610e24610c5c565b5b600082013567ffffffffffffffff811115610e4357610e42610c61565b5b610e4f84828501610de1565b91505092915050565b600081519050919050565b600082825260208201905092915050565b6000819050602082019050919050565b610e8d81610c66565b82525050565b6000610e9f8383610e84565b60208301905092915050565b6000602082019050919050565b6000610ec382610e58565b610ecd8185610e63565b9350610ed883610e74565b8060005b83811015610f09578151610ef08882610e93565b9750610efb83610eab565b925050600181019050610edc565b5085935050505092915050565b60006020820190508181036000830152610f308184610eb8565b905092915050565b600073ffffffffffffffffffffffffffffffffffffffff82169050919050565b6000610f6382610f38565b9050919050565b610f7381610f58565b8114610f7e57600080fd5b50565b600081359050610f9081610f6a565b92915050565b60008060408385031215610fad57610fac610c5c565b5b6000610fbb85828601610c87565b9250506020610fcc85828601610f81565b9150509250929050565b610fdf81610f58565b82525050565b6000602082019050610ffa6000830184610fd6565b92915050565b61100981610c66565b82525050565b600081519050919050565b600082825260208201905092915050565b60005b8381101561104957808201518184015260208101905061102e565b60008484015250505050565b60006110608261100f565b61106a818561101a565b935061107a81856020860161102b565b61108381610cd3565b840191505092915050565b60006040820190506110a36000830185611000565b81810360208301526110b58184611055565b90509392505050565b60006060820190506110d36000830186611000565b81810360208301526110e58185611055565b90506110f46040830184611000565b949350505050565b6000806040838503121561111357611112610c5c565b5b600061112185828601610c87565b925050602083013567ffffffffffffffff81111561114257611141610c61565b5b61114e85828601610de1565b9150509250929050565b7f4f6e6c7920746865206f776e65722063616e20706572666f726d20746869732060008201527f616374696f6e0000000000000000000000000000000000000000000000000000602082015250565b60006111b460268361101a565b91506111bf82611158565b604082019050919050565b600060208201905081810360008301526111e3816111a7565b9050919050565b7f526f6c6520646f6573206e6f7420657869737400000000000000000000000000600082015250565b600061122060138361101a565b915061122b826111ea565b602082019050919050565b6000602082019050818103600083015261124f81611213565b9050919050565b7f526f6c65206973206e6f742061737369676e6564000000000000000000000000600082015250565b600061128c60148361101a565b915061129782611256565b602082019050919050565b600060208201905081810360008301526112bb8161127f565b9050919050565b7f436972636c6520646f6573206e6f742065786973740000000000000000000000600082015250565b60006112f860158361101a565b9150611303826112c2565b602082019050919050565b60006020820190508181036000830152611327816112eb565b9050919050565b7f4e487b7100000000000000000000000000000000000000000000000000000000600052603260045260246000fd5b7f43616e6e6f742061737369676e20746f20746865207a65726f2061646472657360008201527f7300000000000000000000000000000000000000000000000000000000000000602082015250565b60006113b960218361101a565b91506113c48261135d565b604082019050919050565b600060208201905081810360008301526113e8816113ac565b9050919050565b7f4e487b7100000000000000000000000000000000000000000000000000000000600052602260045260246000fd5b6000600282049050600182168061143657607f821691505b602082108103611449576114486113ef565b5b50919050565b7f4e487b7100000000000000000000000000000000000000000000000000000000600052601160045260246000fd5b600061148982610c66565b91507fffffffffffffffffffffffffffffffffffffffffffffffffffffffffffffffff82036114bb576114ba61144f565b5b600182019050919050565b60008190508160005260206000209050919050565b60006020601f8301049050919050565b600082821b905092915050565b6000600883026115287fffffffffffffffffffffffffffffffffffffffffffffffffffffffffffffffff826114eb565b61153286836114eb565b95508019841693508086168417925050509392505050565b6000819050919050565b600061156f61156a61156584610c66565b61154a565b610c66565b9050919050565b6000819050919050565b61158983611554565b61159d61159582611576565b8484546114f8565b825550505050565b600090565b6115b26115a5565b6115bd818484611580565b505050565b5b818110156115e1576115d66000826115aa565b6001810190506115c3565b5050565b601f821115611626576115f7816114c6565b611600846114db565b8101602085101561160f578190505b61162361161b856114db565b8301826115c2565b50505b505050565b600082821c905092915050565b60006116496000198460080261162b565b1980831691505092915050565b60006116628383611638565b9150826002028217905092915050565b61167b8261100f565b67ffffffffffffffff81111561169457611693610ce4565b5b61169e825461141e565b6116a98282856115e5565b600060209050601f8311600181146116dc57600084156116ca578287015190505b6116d48582611656565b86555061173c565b601f1984166116ea866114c6565b60005b82811015611712578489015182556001820191506020850194506020810190506116ed565b8683101561172f578489015161172b601f891682611638565b8355505b6001600288020188555050505b505050505050565b6000602082019050818103600083015261175e8184611055565b90509291505056fea2646970667358221220ec296bd588e743e407ff4beefa0d67c038393770cb828237b395712af3e5f53364736f6c634300081c0033416e63686f7220636972636c6520666f722074686520656e74697265206f7267616e697a6174696f6e2e",
  "linkReferences": {},
  "deployedLinkReferences": {}
}